:020000040020DA
:1000000038040020C916200069162000250F2000A2
:1000100029122000810320001D1A2000000000008A
:10002000FFFFFFFFCDAB341200000000D51620000B
:10003000B5052000000000006D1620008717200085
:10004000290F20008D172000B11720002D0F200050
:10005000CD052000F10520001906200041062000F2
:1000600085032000890320008D03200099012000D2
:1000700061032000D1162000950F2000210F2000E1
:100080007D032000790320009103200000F002F896
:1000900001F0A8FD0AA090E8000C82448344AAF174
:1000A0000107DA4501D101F09DFDAFF2090EBAE872
:1000B0000F0013F0010F18BFFB1A43F0010318479C
:1000C000CC240000EC240000103A24BF78C878C18A
:1000D000FAD8520724BF30C830C144BF04680C604E
:1000E000704700000023002400250026103A28BF96
:1000F00078C1FBD8520728BF30C148BF0B6070479A
:1001000007B571B60A490A6803204FF0804148607C
:10011000012042EA000206490A604FF4281040F22A
:10012000012290474FF080410020486061B607BD32
:100130000060004010B5203AC0F00B80B1E81850C4
:10014000203AA0E81850B1E81850A0E81850BFF4C1
:10015000F5AF5FEA027C24BFB1E81850A0E8185060
:1001600044BF18C918C0BDE810405FEA827C24BFB4
:1001700051F8043B40F8043B08BF7047D20728BF42
:1001800031F8023B48BF11F8012B28BF20F8023B91
:1001900048BF00F8012B704710B50C48846B84638E
:1001A00004F0100080B101F063FA01F07DFC01F071
:1001B0003DF800F0EFF801F003FA00F0E3FB04482B
:1001C0000068401C0249086010BD0000006000404B
:1001D0000000002010B55F48006820F4E06000F5E2
:1001E00080605C4908600846006820F4E04000F543
:1001F000804008600846806820F01F00401C88602E
:100200000846806820F0E00040308860084680683A
:1002100020F4F85000F5006088600846806820F4FB
:10022000604088600846806820F4F81000F50030CF
:1002300088600846806820F4600000F580008860CF
:100240000846806820F0F85000F140708860084649
:10025000806820F0604000F1804088600846C068F7
:1002600020F01F00001DC8600846C06820F0E000B4
:100270004030C8600846C06820F4F85000F5A0601F
:10028000C8600846C06820F4604000F58040C8603F
:100290000846C06820F4F81000F53020C860084611
:1002A000C06820F4600000F58000C8600846C0689F
:1002B00020F0F85000F12060C8600846C06820F0C7
:1002C0006040C8600846006B20F00100401C0863D5
:1002D0000846006B20F01000103008630B2002214C
:1002E000002804DB4A07130E1B4A135406E04A0792
:1002F000140E1A4A00F00F031B1FD45400BF0B202A
:1003000000280DDB00BF00BF00F01F02012191405B
:100310004209920002F1E022C2F8001100BF00BFC2
:1003200000BF0C48006820F070000A4908600846C9
:10033000006820F00100401C0860FFF7E1FE632028
:10034000044948600846006820F00200801C0860EC
:1003500010BD00000060004000E400E018ED00E087
:1003600000BFFEE70348006820F00100401C01497F
:10037000086070470090004000BFFEE700BFFEE746
:1003800000BFFEE700BFFEE700BFFEE700BFFEE7DD
:1003900000BFFEE770B576488068764909688842F4
:1003A00003DD00207449486003E0714880687249A9
:1003B00048606F48406A6F490968884203DD002041
:1003C0006D49C86103E06A48406A6B49C8616A4880
:1003D00040686949C9690844674908620846406835
:1003E00018B900206549086006E0634840681E2887
:1003F00002DD0120614908605F48C06918B900202A
:100400005F49086006E05C48C0691E2802DD0120E3
:100410005B4908605948006840B95A48006801289B
:1004200004D159480068401C574908605448006886
:1004300040B956480068012804D155480068401C5E
:100440005349086050480068012802D0022820D192
:100450000CE0494840684F49096808444D49086024
:100460004D480068401C4C49086012E0494800684B
:100470004949096890FBF1F03F494862002045492D
:1004800008604549086040480068401E3E490860D1
:1004900000BF00BF3E480068012802D0022820D1DA
:1004A0000CE03548C0693D49096808443B4908608B
:1004B0003B480068401C3A49086012E03748006831
:1004C0003749096890FBF1F02B49886200203349D5
:1004D0000860334908602E480068401E2C490860B7
:1004E00000BF00BF2448406A2349896A0844224962
:1004F000C862C86A01F0D8FD04462A480CC82046E4
:1005000001F026FE1C4AC2E90C011046D0E90C435A
:100510002246254903C901F07FFB234A03C2234831
:100520000068401C214908600846006820490968A5
:10053000884214D11E48006801F0B6FD04462246E8
:100540000B46194903C901F01BFC0B4AC2E90E0115
:100550000020164908600021134A116051600748C5
:10056000006808490860064800680849086070BDCE
:100570004001002068000020700100207000002071
:100580007800002074000020900000207C000020F3
:100590009400002088000020800000208C000020B3
:1005A0008400002098000020B8000020C400002033
:1005B000C000002000BFFEE710B54FF42811402214
:1005C0000148FFF7B7FD10BD380200204FF0402171
:1005D000896DC8B24FF04021886500F0010121B15A
:1005E00002490968491C014A116070473400002023
:1005F0004FF04021896D01F47F404FF04021886524
:1006000000F4807121B103490968491C014A116055
:1006100070470000380000204FF04021896D01F440
:100620007F004FF04021886500F4803121B10349FB
:100630000968491C014A1160704700003C00002015
:100640004FF04021896D01F07F404FF040218865D7
:1006500000F0807121B103490968491C014A116009
:10066000704700004000002010B54FF040200068A7
:1006700020F00100401C4FF040210860084600684F
:1006800020F0020008600846006820F004000860BE
:100690000846006820F0080008600846006820F05E
:1006A000F000D03008600846006820F4E060086080
:1006B0000846006820F4E04008600846006820F41E
:1006C000403008600846006820F440200860084672
:1006D000006820F4801008600846006820F480005C
:1006E00008600846006820F400000860084640687A
:1006F00020F0030048600846406820F00C00486085
:100700000846406820F0300048600846406820F005
:10071000C00048600846406820F4407048600846C1
:10072000406820F4406048600846406820F440502B
:1007300048600846406820F44040486008464068E9
:1007400020F4403048600846406820F4402000F51E
:10075000802048600846406820F4401000F50010F2
:1007600048600846406820F4400000F540004860BA
:100770000846406820F0407048600846406820F015
:10078000406048600846406820F080504860084655
:10079000406820F0005048600846406820F08040E3
:1007A00048600846406820F000404860084680687D
:1007B00020F00100401C88600846806820F002009C
:1007C000801C88600846806820F00400001D886056
:1007D0000846806820F01000103088600846806865
:1007E00020F02000203088600846806820F040001B
:1007F000403088600846806820F480708860084631
:10080000806820F4007088600846806820F480606A
:1008100088600846806820F48030886008468068D8
:1008200020F4003088600846806820F480208860CA
:100830000846806820F0807088600846806820F054
:10084000007088600846806820F0806088600846F4
:1008500000696FF30B0000F2E73008610846406959
:100860006FF30B0000F2E7304861084680696FF3D0
:100870000B0000F2E73088610846C0696FF30B0097
:10088000C8610846006A6FF30B0008620846406AB8
:100890006FF30B0000F2E73048620846006C20F06E
:1008A000FF00803008640846006C20F47F0000F5EB
:1008B000000008640121042001F06CF94FF0402091
:1008C000006D20F00100401C4FF04021086501211F
:1008D000052001F05FF94FF04020006D20F480709A
:1008E00000F580704FF0402108650121062001F0DD
:1008F00051F94FF04020006D20F4803000F5803039
:100900004FF0402108650321072001F043F94FF023
:100910004020006D20F0807000F180704FF0402189
:1009200008650846806D20F00100401C88650420A1
:1009300001F01EF94FF04020806D20F4807000F52A
:1009400080704FF040218865052001F011F94FF0CB
:100950004020806D20F4803000F580304FF0402141
:100960008865062001F004F94FF04020806D20F0EA
:10097000807000F180704FF040218865072001F001
:10098000F7F810BD2DE9FF4133480068002861D118
:100990003248006864284BD131480078012847D09C
:1009A00000F0DCFB012813D12D4908702D480068A8
:1009B000401C2C49086000200090019002900346E2
:1009C00002460146039000F09DFE01F029F841E047
:1009D00000221346244903C901F02AFB3AD02348D8
:1009E000D0E90E633246204903C901F0E5FC21F04D
:1009F0000041044600221E4B01F06EFB13D2012081
:100A00001749087017480068401C16490860002004
:100A1000009001900290034602460146039000F0C8
:100A200071FE00F0FDFF00200F4A1060506011E0E1
:100A30000A48006864280DDD0C49D1E90E410A48D6
:100A40000CC8204601F082FC04D20849D1E90E010D
:100A5000054A03C2BDE8FF811801002004010020FF
:100A60005A00002060000020D0000020700100200B
:100A7000000059407FB504460D46874800680128AC
:100A800002D100208549086084480068012800D10F
:100A90007FBD81480068012802D10CB980480468F4
:100AA00080480068A0427CDC7F480078002878D12C
:100AB0007E4800780028FAD17D4800687D490968A1
:100AC000401AA8426EDB7C490968481CC11700EB3C
:100AD0005171C910A0EBC101784A1268914261D1ED
:100AE0007548006808287BD2DFE800F0046B5D4B96
:100AF0003E2F221201207249086000204860886061
:100B00000120C8600020086148618861C86167E011
:100B100001206B4908600020486088600120C8609F
:100B2000002008610120486188610020C86157E009
:100B300000206349086048608860C860086101203F
:100B4000486188610020C8614AE000205C49086073
:100B50000120486088600020C86008610120486169
:100B600088610020C8613BE00020554908600120F1
:100B7000486088600020C860086148618861C86179
:100B80002EE000204E490860012048608860002067
:100B9000C860012008610020486188610120C861A7
:100BA0001EE04BE036E00020454908604860886060
:100BB000C860012008610020486188610120C86187
:100BC0000EE001203E490860002048608860012056
:100BD000C86008610020486188610120C86100BFC9
:100BE00000BF354800683749086033480068401E38
:100BF000314908602B480068401C2A4908602E488B
:100C00000068401C10B907202B490860284800687C
:100C1000284908602A48C06929498969284A5269CF
:100C2000274B1B69264ECDE90032CDE90210F3684F
:100C3000B2687168306800F065FD2AE01948006804
:100C4000A0420BDB012020490860134800680128FE
:100C500004D100F0E5FE00200F490860002018498B
:100C6000086048608860C860086148618861C86140
:100C70000846C26980694969114B1B69104ECDE96C
:100C80000031CDE90202F368B2687168306800F0A3
:100C900039FD00BFFCE6000008010020F000002044
:100CA00014010020E400002058000020590000201A
:100CB0002C000020E8000020F400002008000020A4
:100CC00018020020EC000020FC0000207FB5044644
:100CD0000D4686480068012801D18549086084488E
:100CE000006800B97FBD81480068012802D10CB9B5
:100CF0008048046880480068A0427CDC7F48007817
:100D0000002878D17E4800780028FAD17D48006814
:100D10007D490968401AA8426EDB7C490968481C75
:100D2000C11700EB5171C910A0EBC101784A1268DC
:100D3000914261D17648006808287BD2DFE800F054
:100D40000412212F3F4C5D6A012072490860002087
:100D5000486088600120C86000200861486188619F
:100D6000C86167E001206B49086000204860886026
:100D70000120C86008610020486188610120C861C5
:100D800058E000206349086048608860C86001201E
:100D900008610020486188610120C8614AE00020A4
:100DA0005C4908600120486088600020C86001201C
:100DB00008610020486188610120C8613AE0002094
:100DC000544908600120486088600020C8600861BC
:100DD00048618861C8612DE000204E49086001200B
:100DE000486088600020C86008610120486188610F
:100DF0000020C8611EE04BE036E000204549086055
:100E000048608860C86008610120486188610020EE
:100E1000C8610FE001203F490860002048608860F9
:100E20000120C8600020086101204861886100201D
:100E3000C86100BF00BF36480068374908603448C1
:100E40000068401C324908602B480068401C2A4951
:100E500008602F480068082802D100202C4908604B
:100E600028480068284908602A48C06929498969D2
:100E7000284A5269274B1B69264ECDE90032CDE93D
:100E80000210F368B2687168306800F03BFC2AE039
:100E900019480068A0420BDB012020490860134874
:100EA0000068012804D100F0BBFD00200F49086054
:100EB00000201849086048608860C860086148617F
:100EC0008861C8610846C26980694969114B1B691C
:100ED000104ECDE90031CDE90202F368B2687168C5
:100EE000306800F00FFC00BFFCE600000C010020A1
:100EF000F000002014010020E40000205800002031
:100F0000590000202C000020E800002004000020F0
:100F1000F400002018020020EC000020FC0000205B
:100F200000BFFEE700BFFEE700BFFEE70E49C96A4B
:100F300088B20D49C86200F0400121B10B4909682F
:100F4000491C0A4A116000F0040121B108490968EE
:100F5000491C074A116000F4805121B10549096814
:100F6000491C044A11607047003000404C000020CA
:100F7000500000205400002000B50448007800F024
:100F8000EDFD00F09BFB0249087000BD450000200C
:100F90004400002006498969C8B20549886100F00B
:100FA000100121B103490968491C024A11607047C8
:100FB00000B000404800002010B56548006820F0EF
:100FC0000100401C624908600846006820F00E00DD
:100FD000083008600846006820F0300008600846C5
:100FE000006820F0400008600846006820F4407067
:100FF00008600846006820F4406000F50060086062
:101000000846006820F4805008600846006820F414
:10101000005008600846006820F4803008600846E8
:10102000006820F4003008600846006920F01000D5
:101030001030086100210E2000F0C0FD0F2044494F
:1010400088610E2000280DDB00BF00BF00F01F02EA
:10105000012191404209920002F1E022C2F8001100
:1010600000BF00BF00BF3B48006820F00200801CAA
:10107000384908600846006820F00400001D086038
:101080000846006820F0080008300860084600683C
:1010900020F01000103008600846006820F0400082
:1010A00008600846006820F0800008600846006874
:1010B00020F4807008600846006820F40070086022
:1010C0000846006820F4806008600846006820F444
:1010D000006008600846006820F470400860084618
:1010E000006820F4702008600846006820F08050F6
:1010F00008600846006820F0005008600846006854
:1011000020F0804008600846406A20F040004030EF
:1011100048620846406A20F00400001D4862084604
:10112000406A20F4805000F5805048624FF6FF700E
:10113000C8620846006820F00100401C08600021D9
:10114000032000F03BFD08200349086010BD0000AB
:1011500000B000400030004000E100E02DE9F04127
:101160002D48C06D0A283ED12B48406E0B2190FBC4
:10117000F1F201FB1200284901EBC0022748C16BC4
:10118000806B03C22448006E0B2190FBF1F201FB3F
:101190001200214901EBC000D0E900430846406E2F
:1011A0000B2190FBF1F201FB12001B4901EBC00087
:1011B0002246D0E90061304601F0FEF8184A03C229
:1011C0001548406E401C144948660846006E401C95
:1011D00008660022134B124903C901F0B7F819D26F
:1011E0000120BDE8F0810C48406E0B2190FBF1F22C
:1011F00001FB1200084901EBC0020848C16B806B7B
:1012000003C20548406E401C034948660846C06D4D
:10121000401CC8650020E4E7B001002070010020F8
:10122000C80000200000544000BFFEE7804840692D
:101230007F490969884257DD7D48406940F2FF7166
:10124000884203DB7B480068012809D07848406960
:1012500040F2FF71884247DB76480068002843D19E
:101260007348C06872498968884218DD7048C06850
:1012700040F2FF71884203DB6E480068012808D005
:101280006B48C06840F2FF71884208DB694800681B
:1012900028B901206849086068490860C7E06448C7
:1012A00080686349C968884218DD6148806840F2F7
:1012B000FF71884203DB5F480068012808D05C4862
:1012C000806840F2FF71884208DB5A48006828B9FC
:1012D00007205949086059490860A8E0002056498C
:1012E000086056490860A2E05148006950494969C0
:1012F000884257DD4E48006940F2FF71884203DBA7
:101300004C480068012808D04948006940F2FF7144
:10131000884247DB47480068E8BB4548C068444905
:101320008968884218DD4248C06840F2FF718842EF
:1013300003DB40480068012808D03D48C06840F2FF
:10134000FF71884208DB3B48006828B903203A490E
:1013500008603A4908606AE0354880683449C968DD
:10136000884219DD3248806840F2FF71884203DB11
:1013700030480068012808D02D48806840F2FF718D
:10138000884209DB2B48006830B905202A490860EB
:101390002A4908604BE005E00420274908602749F6
:1013A000086044E02248C06821498968884218DD05
:1013B0001F48C06840F2FF71884203DB1D48006887
:1013C000012808D01A48C06840F2FF71884208DB43
:1013D0001848006828B902201749086017490860B2
:1013E00025E0134880681249C968884218DD104812
:1013F000806840F2FF71884203DB0E4800680128D4
:1014000008D00B48806840F2FF71884208DB094829
:10141000006828B90620084908600849086006E005
:101420004FF0FF300449086001200449086070470C
:1014300070010020F00000200400002008000020BF
:101440001FB55548006802283AD254480078012850
:1014500015D153490968481C00EBD0714910A0EB25
:1014600041014F4A116000204C49087000900190E2
:101470000290034602460146039000F043F94948B2
:10148000016847F23050FFF721FC4648016847F2F7
:101490003050FFF7EFFA4448006844490968401AA1
:1014A000602878DB3F480068642874D03D480068B5
:1014B0000A383C4908603C4800683C4908606AE0DA
:1014C00036480078012815D135490968481C00EBD9
:1014D000D0714910A0EB4101314A116000202F4921
:1014E0000870009001900290034602460146039066
:1014F00000F008F92E480068012824D12D48006822
:101500002D490968884203DD2B4800682949086095
:101510002448016827480068FFF7D8FB2248006884
:1015200022490968401A602835DB1E480068642893
:1015300031D01C4800680A381A4908601A48006807
:101540001A49086027E01D480068012823D119487E
:10155000006819490968884203DD17480068154981
:1015600008601048016813480068FFF783FA0E48C6
:1015700000680E490968401A60280CDB09480068B9
:10158000642808D0074800680A38064908600648F9
:101590000068064908601FBD600000205A00002056
:1015A000F000002004010020E400002000010020E1
:1015B0000C0100201001002014010020080100206F
:1015C0002248007801282ED0214800682149096866
:1015D000884223D01E490968481EC11700EB51718B
:1015E000C910A0EBC1011B4A1268914204D11A48EC
:1015F0000068401C1849086015490968481CC11753
:1016000000EB5171C910A0EBC101124A126891425E
:1016100004D112480068401C104908600C4800685A
:101620000C49086011E00E480068012805D100202F
:10163000094908600949086007E00948006802286C
:1016400003D1054800680749086070475A00002028
:10165000F4000020200000201800002014000020CA
:10166000600000201401002000BFFEE700BFFEE77D
:101670001048006980B2104948600E48406980B245
:1016800088600C48806980B2C8610A48C06980B22D
:1016900088610848006A80B248610648406A80B2A2
:1016A00008610448806A80B208620248C06A80B259
:1016B0004862704700600040400100200148006A15
:1016C000C0B2704700300040FEF7E4FC00BFFEE708
:1016D00000BFFEE700BFFEE710B500F037FA4FF09D
:1016E0008040006920F001004FF080410861084609
:1016F000406820F0070048600846006B20F00100B9
:10170000086310BD2DE9F04106ACF0CC4FF0402C41
:10171000DCF804C060F3830C4FF04028C8F804C024
:10172000C446DCF804C061F3010CC8F804C0C44628
:10173000DCF804C062F3871CC8F804C0C446DCF8B7
:1017400004C063F3051CC8F804C0C446DCF804C038
:1017500064F38B2CC8F804C0C446DCF804C065F3FD
:10176000092CC8F804C0C446DCF804C066F38F3CFA
:10177000C8F804C0C446DCF804C067F30D3CC8F8E0
:1017800004C0BDE8F08100BFFEE700000649C9695A
:10179000C8B20549C86100F0010121B103490968D7
:1017A000491C024A11607047002000402C000020B4
:1017B00007490968C8B20749C1F81C0100F00201D5
:1017C00021B105490968491C034A116070470000AE
:1017D0001C210040002000403000002010B560486F
:1017E00080686FF30F00401C5D4988600846C06840
:1017F0006FF30F006330C86000204861084600683E
:1018000020F0020008600846006820F00C00086024
:101810000846006820F4005008600846006820F47C
:10182000805008600846006820F00100401C0860F5
:1018300001200146002804DB4A07130E494A1354CD
:1018400006E04A07140E484A00F00F031B1FD45449
:1018500000BF4348406920F00100401C40494861F6
:101860000846C06920F00100401CC8610120002822
:101870000DDB00BF00BF00F01F02012191404209B3
:10188000920002F1E022C2F8001100BF00BF00BFC9
:10189000364800686FF30F00401C3149C1F8080159
:1018A0003248001D00686FF30F0000F2E730C1F806
:1018B0000C012E480838006820F4E02000F50030C4
:1018C000C1F800012948083000686FF30F0000F2EA
:1018D000E73026490831086000202149C1F8140189
:1018E0000846D0F8000120F00200C1F800011F48AE
:1018F0000838006820F00C00001DC1F800010846FF
:10190000D0F8000120F40050C1F800010846D0F8DA
:10191000000120F48050C1F8000114480838006824
:1019200020F4006000F50060C1F800010846D0F81E
:10193000000120F40040C1F800010C480C300068A0
:1019400020F00200801CC1F8140108480838006823
:1019500020F00100401C05490839086010BD000056
:101960000020004000E400E018ED00E00821004005
:1019700000202AE000EB4001164A02EB8101498871
:1019800009B300EB400102EB81014988491E00EBDD
:101990004002104B03EB8202518000EB40011A46DB
:1019A00002EB8101498871B900EB400102EB810132
:1019B000898800EB400203EB82025180012100EB99
:1019C000400203F82210411CC8B20349097888423A
:1019D000D0DB7047240100203C01002010B500241A
:1019E00013E004EB44000B4911F8200058B100202B
:1019F00004EB4401074A02F8210004EB440102EB26
:101A0000810188688047601CC4B203480078844222
:101A1000E7DB10BD240100203C01002000BFFEE7F1
:101A200010B500200D4908600D4908600D49086097
:101A3000401E0D49086000200C490860C8200C4970
:101A4000086000200B49086048608860C860086131
:101A500048618861C86100F00FF810BDE400002003
:101A600000010020F4000020EC000020E80000202D
:101A700004010020180200200B200A49886500207C
:101A800008664866C86500BF06E00022054B03EB08
:101A9000C0031A605A60401C0249896D8142F4DC1F
:101AA00070470000B00100202548006980B2254938
:101AB00008602348806980B223490968884203DDB1
:101AC00000202049886004E01D48806980B21D49DB
:101AD00088601B48C06980B21B490968884203DDE1
:101AE00000201849C86004E01548C06980B2154953
:101AF000C8601348006A80B213490968884203DD50
:101B000000201049086104E00D48006A80B20D49C8
:101B100008610B48406A80B20B490968884203DDBE
:101B200000200849486104E00548406A80B2054940
:101B300048610348806A80B20249886170470000AA
:101B400000600040700100201C0000200148024994
:101B5000086070470F7AA54E008000400349C969AC
:101B600060F30701014AD161704700000030004076
:101B700000280DDB00BF00BF00F01F0201219140D3
:101B80004209920002F1E022C2F8001100BF00BF3A
:101B90007047000010B5002804DB4A07130E054A01
:101BA000135406E04A07140E034A00F00F031B1FEC
:101BB000D45410BD00E400E018ED00E010B500289A
:101BC00004DB4A07130E054A135406E04A07140EB5
:101BD000034A00F00F031B1FD45410BD00E400E0C3
:101BE00018ED00E010B500F001F810BDFEF7E4FCC0
:101BF000FFF772FDFEF7EEFAFFF7F0FDFEF734FD9A
:101C0000FEF7B0FBFFF738FFFFF7D6F903E0FFF769
:101C1000AFFEFFF7E3FEFAE710B591EA030F48BF06
:101C200083F0004300F1D083841A71EB030C05D2DA
:101C3000121943EB0C03001B61EB0C01DFF824E1EC
:101C40004FEA1154A4EB135C1EEA430F18BF9EEA3F
:101C5000445F73D023EA0E03DCF1200E21EA045125
:101C600043F4801332D322FA0CFE10EB0E0023FA59
:101C70000CFE41EB0E01CCF1200E03FA0EFE10EB30
:101C80000E0051F10001B1F5801FCCF1200E32D2CF
:101C900001EB045112FA0EF2BDE8104058BF704734
:101CA000401C38BF5FEA420218BF7047002814BFCB
:101CB00020F0010041F100014FEA410313F5001F3C
:101CC00038BF7047A1F1C04100F03ABB012A43EB95
:101CD0000302ACF1200CDCF11F0E32BF4FF0000EFE
:101CE00023FA0CF310EB030041EB0451B4EB115F4A
:101CF000D0D0A1EB045101F5801149085FEA300012
:101D000001EB04510ED350F1000038BF12FA0EFE61
:101D100008D1BDE81040C9E7401C38BF5FEA420265
:101D2000CAD1C3E7BDE810404FEA410313F5001FD5
:101D300038BF7047A1F1C04100F002BB9EEA445F8A
:101D400008D011EA5E0FBDE8104004BF01F0004169
:101D500000207047BDE8104070B500F0A3FA00BF46
:101D600064FBBE3E0000E0FF491058BFC1F1404196
:101D70005B1058BFC3F140438B42EFF300807047C4
:101D80002DE9C04130B4DFF8A0C23CEA111418BFFD
:101D90003CEA131400F0EC8081EA03051CEA1114FC
:101DA00044EAD57418BF1CEA131500F0C780A4EBF1
:101DB00005044FF0004545EAC12145EAC32341EA45
:101DC000505143EA525304F17F74994204F50034B0
:101DD0004FEAC0204FEAC22208BF904200F09C8028
:101DE0004FEA13650FF24016765D4FEA134506FB86
:101DF00005F7C7F1807706FB07F74FEAD737A7FB50
:101E000003687642C8F58038A7FB06CE38BFA8F134
:101E1000010807FB08E64FF0000EA6FB028CE6FB6C
:101E200003CEDCF1000CCEF1004E38BFAEF1010E56
:101E3000A6FB0C584FF000074FF00005E6FB0E879D
:101E4000A1FB08C6A0FB07CE16EB0E0645F1000568
:101E5000E1FB076515F1E04E7EBFA4F580345FEA33
:101E600046066D4116F1800745F100054FEA172738
:101E70004FEA066647EA0567A6F1DE46B6F1805FDF
:101E80004FEA15251FD9384624F0010C05EBC47123
:101E9000BCF1FE6F01EB0C1102D8F0BCBDE8008173
:101EA00024425CBF01F5801E9EEAC47F02D4F0BCD0
:101EB000BDE80081244238D4F0BCA1F1C041BDE8A6
:101EC000004100F03DBA4FEAD22242EA43524FEAC3
:101ED000D323A7FB02864FEAD02040EA415007FBFC
:101EE00003661EEA0E0F4FEAD12105FB026658BFBA
:101EF000A6EB0056B6EB00564FEA520E4EEAC37EF2
:101F000018EB0E0E56EB530EBDD518EB02085E41D2
:101F10007F1C55F10005B6E74FF480154FF0000720
:101F20004FF000064FF00008ADE7F0BC4FF00000A6
:101F300001F1C04101F00041BDE8008111EA0C1F30
:101F40000CEA131500D00CE013EA0C1F00F02580FA
:101F50004FF00000F0BC81EA030101F00041BDE850
:101F60000081F0BCBDE8004181EA030100F0E8B95E
:101F7000F0BCBDE8004170B500F094F9097EFC3E6C
:101F800000F007B881EA03014FF0000001F00041C2
:101F9000704781EA030100F0D3B9F0BCBDE800410D
:101FA0004FF0000021497047FFFDFBF9F7F5F4F20F
:101FB000F0EEEDEBE9E8E6E4E3E1E0DEDDDBDAD8E4
:101FC000D7D5D4D3D1D0CFCDCCCBCAC8C7C6C5C442
:101FD000C2C1C0BFBEBDBCBBBAB9B8B7B6B5B4B359
:101FE000B2B1B0AFAEADACABAAA9A8A8A7A6A5A444
:101FF000A3A3A2A1A09F9F9E9D9C9C9B9A99999808
:102000009797969595949393929191908F8F8E8EAA
:102010008D8C8C8B8B8A8989888887878685858437
:1020200084838382828181800000FF070000F87F23
:1020300051EA030C17D41CF5801F58BFBCF5801F54
:1020400000F10680994218BF704708BF9042704760
:1020500007D711F5801F58BF13F5801F19D4994277
:102060007047894270471CF5801F08D5BCF5801F5A
:10207000F7D58B4218BF704708BF824270474FF4B4
:10208000001C1CEB410F38BF1CEB430F01D28B42ED
:10209000704770B500F006F9922449004FF00051E6
:1020A0004FF08053FFF760BE10F0004248BF40423F
:1020B000B0FA80F310FA03F10AD0C3F11D0303F55F
:1020C00080634FEA415002EB035202EBD12170478B
:1020D0004FF000007047000051EA030C17D41CF5C4
:1020E000801F58BFBCF5801F00F10680994218BFC1
:1020F000704708BF9042704707D711F5801F58BF3F
:1021000013F5801F19D499427047894270471CF516
:10211000801F08D5BCF5801FF7D58B4218BF7047CC
:1021200008BF824270474FF4001C1CEB410F38BFC0
:102130001CEB430F01D28B42704770B500F0B2F830
:10214000922449004FF000514FF08053FFF70CBE2E
:10215000DFF848C170B51CEA111E1EBF1CEA13153A
:102160009EEA0C0F95EA0C0F00F06F8081EA0304E1
:1021700023EA4C134EEAD47E21EA4C1141F480113B
:1021800043F48013AE44A1FB024CA0FB0365AEF107
:102190007F7E361955EB0C05A1FB034C4CF1000377
:1021A000A0FB021C16EB0C06654153F1000309422B
:1021B00018BF46F0010613F4007F0BD14FEA03313C
:1021C0004FEA0530340341EA155140EA16506FF0EA
:1021D00003020AE04FEAC3214FEAC520F40241EAB4
:1021E000555140EA56506FF0020202EB2E4201EBCD
:1021F000025585EACE710AD05FEA440C18BF24F07C
:10220000004450F1000041F1000120EAD47040F296
:10221000FE7C624500D270BDA84214BF4FF08044DE
:102220004FF04044002E08BF0024BEF1806FA8BFCD
:10223000A1F1C041BDE8704080F282804FF0000003
:1022400001F1C04101F0004170479EEA0C0F0CEA19
:10225000131518BF95EA0C0F06D04FF0000081EA65
:10226000030E0EF0004170BD00F01CF88900013E25
:1022700000F007B800F009B84FEA430C5FEA5C5C75
:1022800008D081EA030100F05BB84FEA410C5FEA35
:102290005C5CF6D14FF00000014970470000FF0779
:1022A0000000F87F0EF1020E2EF0030E5EF8046BB4
:1022B000364205D4012A43EB030515F5001F12D859
:1022C000012841EB010C1CF5001F0CD80ED14FEA80
:1022D000D17C15F5001F0CEB4C0C0CF1020C08BF67
:1022E0004CEBD37C04E04FF0080C01E04FEAD37CC8
:1022F0000CEB4C0526FA05F606F00706B6F1040CC1
:1023000006D20EEB860CBDE870404CF0010C604725
:10231000DFE80CF0090B02024FF000414FF0000023
:10232000A1F5002170BD19461046012851EB0104AA
:1023300018BFD4F5001484BF002001F0004170BD27
:102340000808A0F500114FEA3101704753EA010C6B
:1023500017D41CF5801F58BFBCF5801F00F1068004
:102360008B4218BF704708BF8242704707D713F5EA
:10237000801F58BF11F5801F19D48B4270479B42B4
:1023800070471CF5801F08D5BCF5801FF7D5994212
:1023900018BF704708BF904270474FF4001C1CEBF9
:1023A000430F38BF1CEB410F01D2994270470FB465
:1023B0000CBC03BCFFF7C1BE10B591EA030F48BFC8
:1023C00083F000433FF530AC841A71EB030C07D265
:1023D00012198CF0004C43EB0C03001B61EB0C0159
:1023E000DFF8A4E14FEA1154A4EB135C1EEA430F9B
:1023F00018BF9EEA445F00F0B08023EA6E035242A9
:1024000021EA0451C3EB6E0338BF5B1EDCF1200EE2
:1024100025D322FA0CFE10EB0E0043FA0CFE41EB22
:102420000E01CCF1200E03FA0EFE10EB0E0051F15E
:102430000001CCF1200E29D412FA0EF201EB045166
:10244000BDE8104058BF7047401C1CBFB2F1004FA0
:10245000704700280CBF491C20F00100704712EBA8
:10246000020E43EB030218BF4FF0010E4EEA420288
:10247000ACF1200CDCF11E0E54D943FA0CFE10EB2B
:102480000E0051F1FF31CCF11E0ED5D50EF1010E2B
:1024900012FA0EFE404141EB010101EB445C5FEAA0
:1024A0005C5C10D910EBDE7001EB045138BFBEF15B
:1024B000004FBDE8104018BF704700280CBF491CF2
:1024C00020F00100704730D24FEAD42C11F50011F2
:1024D00024F400641BD0B1FA81F20B3AA41AA41EB2
:1024E000D2F12003914030FA03F31943904001EBFD
:1024F000CC71002C01EB0451BDE81040A8BF70471F
:1025000001F1C0414FF0000001F000417047B0FA06
:1025100080F310FA03F100D110BDE41A173C48050E
:10252000C90AE4E701EB045110BD491001EB045165
:10253000BDE810404FEA300002E04FF00001704764
:102540004A0008BF0042F8D0B2F5001F28BF70470C
:1025500001F000414FF0000070479EEA445F07D051
:1025600011EA5E0FBDE8104004BF00210020704753
:10257000BDE8104070B5FFF795FE00BF40DFF63EA6
:1025800083F00041104670470000E0FFAC252000BA
:102590000000002040010000C8002000EC262000C0
:1025A00040010020F8020000E400200000000000CC
:1025B000FFFFFFFF01000000FFFFFFFF0100000021
:1025C0000000000000000000FF0700000000000005
:1025D00000000000000000000000000000000000FB
:1025E00000000000000000000000000000000000EB
:1025F000006100000000000000000000000000007A
:1026000000000000000000000000000000000000CA
:10261000000000000080000000000100FFFFFFFF3D
:10262000FFFFFFFFFFFFFFFFFFFFFFFF00000000B6
:10263000000000000000000000000000000000009A
:1026400000000000CDCCCCCCCCCC1A400000000067
:1026500000407F40000000000000494000000000F2
:1026600000C077400000000000000000F4010000FE
:10267000000000000000000000000000000000005A
:102680000000000000000000E0FFEF400A00000032
:102690000000000000000000FFFFFFFF000000003E
:1026A000000000000000000000000000000000002A
:1026B000C800000000000000000000000000000052
:1026C000000000000000000000000000000000000A
:1026D000000002000200000041142000000064001D
:0C26E00064000000790F200002000000E0
:040000050020008D4A
:00000001FF
