Component: ARM Compiler 5.06 update 3 (build 300) Tool: armlink [4d35c9]

==============================================================================

Section Cross References

    main.o(i.main) refers to eeprom.o(i.EEPROM_DATA_READ) for EEPROM_DATA_READ
    main.o(i.main) refers to sysctrl.o(i.SYSCTRL_Init) for SYSCTRL_Init
    main.o(i.main) refers to adc.o(i.ADC_Init) for ADC_Init
    main.o(i.main) refers to tim.o(i.TIM_Init) for TIM_Init
    main.o(i.main) refers to epwm.o(i.EPWM_Init) for EPWM_Init
    main.o(i.main) refers to bemfc.o(i.BEMFC_Init) for BEMFC_Init
    main.o(i.main) refers to variable.o(i.Variable_Init) for Variable_Init
    main.o(i.main) refers to lin.o(i.LIN_Init) for LIN_Init
    main.o(i.main) refers to task.o(i.Task_Marks_Handler_Callback) for Task_Marks_Handler_Callback
    main.o(i.main) refers to task.o(i.Task_Pro_Handler_Callback) for Task_Pro_Handler_Callback
    adc.o(i.ADC_IRQHandler) refers to adc.o(i.Raw_Data_Get) for Raw_Data_Get
    adc.o(i.ADC_IRQHandler) refers to adc.o(i.Voltage_Process) for Voltage_Process
    adc.o(i.ADC_IRQHandler) refers to adc.o(i.Motor_Position_Judge) for Motor_Position_Judge
    adc.o(i.ADC_IRQHandler) refers to adc.o(i.Current_Process) for Current_Process
    adc.o(i.ADC_IRQHandler) refers to adc.o(i.Motor_Step_Count) for Motor_Step_Count
    adc.o(i.ADC_IRQHandler) refers to adc.o(i.ERROR_CHACK) for ERROR_CHACK
    adc.o(i.ADC_IRQHandler) refers to adc.o(.data) for ADC_Handler_Counter
    adc.o(i.ADC_Init) refers to safeenaadc.o(.text) for SafeEnaADC
==============================================================================

Removing Unused input sections from the image.

    Removing main.o(.rev16_text), (4 bytes).
    Removing main.o(.revsh_text), (4 bytes).
    Removing main.o(.rrx_text), (6 bytes).
    Removing adc.o(.rev16_text), (4 bytes).
    Removing adc.o(.revsh_text), (4 bytes).
    Removing adc.o(.rrx_text), (6 bytes).
    Removing adc.o(i.Mos_CLOSE_Judge), (32 bytes).
    Removing sysctrl.o(.rev16_text), (4 bytes).
    Removing sysctrl.o(.revsh_text), (4 bytes).
    Removing sysctrl.o(.rrx_text), (6 bytes).
    Removing tim.o(.rev16_text), (4 bytes).
    Removing tim.o(.revsh_text), (4 bytes).
    Removing tim.o(.rrx_text), (6 bytes).
    Removing epwm.o(.rev16_text), (4 bytes).
    Removing epwm.o(.revsh_text), (4 bytes).
    Removing epwm.o(.rrx_text), (6 bytes).
    Removing lin.o(.rev16_text), (4 bytes).
    Removing lin.o(.revsh_text), (4 bytes).
==============================================================================

Image Symbol Table

    Local Symbols

    Symbol Name                              Value     Ov Type        Size  Object(Section)

    ../clib/angel/handlers.s                 0x00000000   Number         0  __scatter_zi.o ABSOLUTE
    ../clib/angel/handlers.s                 0x00000000   Number         0  __scatter_copy.o ABSOLUTE
    ../clib/angel/scatter.s                  0x00000000   Number         0  __scatter.o ABSOLUTE
    ../clib/angel/startup.s                  0x00000000   Number         0  __main.o ABSOLUTE
    ../clib/memcpset.s                       0x00000000   Number         0  rt_memcpy_v6.o ABSOLUTE
    ../clib/memcpset.s                       0x00000000   Number         0  rt_memcpy_w.o ABSOLUTE
    ../clib/string.c                         0x00000000   Number         0  strlen.o ABSOLUTE
    ../clib/string.c                         0x00000000   Number         0  strcpy.o ABSOLUTE
    ../fplib/daddsub.s                       0x00000000   Number         0  daddsub_clz.o ABSOLUTE
    ../fplib/dcmpi.s                         0x00000000   Number         0  dcmpi.o ABSOLUTE
    ../fplib/ddiv.s                          0x00000000   Number         0  ddiv.o ABSOLUTE
    ../fplib/deqf.s                          0x00000000   Number         0  deqf.o ABSOLUTE
    ../fplib/dflt.s                          0x00000000   Number         0  dflt_clz.o ABSOLUTE
    ../fplib/dleqf.s                         0x00000000   Number         0  dleqf.o ABSOLUTE
    ../fplib/dmul.s                          0x00000000   Number         0  dmul.o ABSOLUTE
    ../fplib/dnaninf.s                       0x00000000   Number         0  dnaninf.o ABSOLUTE
    ../fplib/dretinf.s                       0x00000000   Number         0  dretinf.o ABSOLUTE
    ../fplib/drleqf.s                        0x00000000   Number         0  drleqf.o ABSOLUTE
    ../fplib/usenofp.s                       0x00000000   Number         0  usenofp.o ABSOLUTE
    ADC.c                                    0x00000000   Number         0  adc.o ABSOLUTE
    ADC.c                                    0x00000000   Number         0  adc.o ABSOLUTE
    BEMFC.c                                  0x00000000   Number         0  bemfc.o ABSOLUTE
    BEMFC.c                                  0x00000000   Number         0  bemfc.o ABSOLUTE
    D:\\keil5\\ARM\\PACK\\Micronas\\HVC\\1.11.0\\API\\Source\\HVC5221D_B1_API.c 0x00000000   Number         0  hvc5221d_b1_api.o ABSOLUTE
    D:\keil5\ARM\PACK\Micronas\HVC\1.11.0\API\Source\HVC5221D_B1_API.c 0x00000000   Number         0  hvc5221d_b1_api.o ABSOLUTE
    EEPROM.c                                 0x00000000   Number         0  eeprom.o ABSOLUTE
    EEPROM.c                                 0x00000000   Number         0  eeprom.o ABSOLUTE
    EPWM.c                                   0x00000000   Number         0  epwm.o ABSOLUTE
    EPWM.c                                   0x00000000   Number         0  epwm.o ABSOLUTE
    Flash.c                                  0x00000000   Number         0  flash.o ABSOLUTE
    Flash.c                                  0x00000000   Number         0  flash.o ABSOLUTE
    LIN.c                                    0x00000000   Number         0  lin.o ABSOLUTE
    LIN.c                                    0x00000000   Number         0  lin.o ABSOLUTE
    OS\Task.c                                0x00000000   Number         0  task.o ABSOLUTE
    RTE\Device\HVC5221D-B1\startup_HVC5221D_B1.c 0x00000000   Number         0  startup_hvc5221d_b1.o ABSOLUTE
    RTE\Device\HVC5221D-B1\system_HVC5221D_B1.c 0x00000000   Number         0  system_hvc5221d_b1.o ABSOLUTE
    RTE\\Device\\HVC5221D-B1\\system_HVC5221D_B1.c 0x00000000   Number         0  system_hvc5221d_b1.o ABSOLUTE
    SEGGER_RTT.c                             0x00000000   Number         0  segger_rtt.o ABSOLUTE
    SYSCTRL.c                                0x00000000   Number         0  sysctrl.o ABSOLUTE
    SYSCTRL.c                                0x00000000   Number         0  sysctrl.o ABSOLUTE
    SafeEnaADC.s                             0x00000000   Number         0  safeenaadc.o ABSOLUTE
    TIM.c                                    0x00000000   Number         0  tim.o ABSOLUTE
    TIM.c                                    0x00000000   Number         0  tim.o ABSOLUTE
    Variable.c                               0x00000000   Number         0  variable.o ABSOLUTE
    Variable.c                               0x00000000   Number         0  variable.o ABSOLUTE
    dc.s                                     0x00000000   Number         0  dc.o ABSOLUTE
    main.c                                   0x00000000   Number         0  main.o ABSOLUTE
    main.c                                   0x00000000   Number         0  main.o ABSOLUTE
    RESET                                    0x00200000   Section      140  startup_hvc5221d_b1.o(RESET)
    !!!main                                  0x0020008c   Section        8  __main.o(!!!main)
    !!!scatter                               0x00200094   Section       52  __scatter.o(!!!scatter)
    !!handler_copy                           0x002000c8   Section       26  __scatter_copy.o(!!handler_copy)
    !!handler_zi                             0x002000e4   Section       28  __scatter_zi.o(!!handler_zi)
    .text                                    0x00200100   Section       52  safeenaadc.o(.text)
    .text                                    0x00200134   Section      100  rt_memcpy_w.o(.text)
    i.ADC_IRQHandler                         0x00200198   Section        0  adc.o(i.ADC_IRQHandler)
    i.ADC_Init                               0x002001d4   Section        0  adc.o(i.ADC_Init)
    i.BEMFC_IRQHandler                       0x00200360   Section        0  startup_hvc5221d_b1.o(i.BEMFC_IRQHandler)
    i.BEMFC_Init                             0x00200364   Section        0  bemfc.o(i.BEMFC_Init)
    i.BVDDOV_IRQHandler                      0x00200378   Section        0  startup_hvc5221d_b1.o(i.BVDDOV_IRQHandler)
    i.BVDDUV_IRQHandler                      0x0020037c   Section        0  startup_hvc5221d_b1.o(i.BVDDUV_IRQHandler)
    i.BusFault_Handler                       0x00200380   Section        0  startup_hvc5221d_b1.o(i.BusFault_Handler)
    i.CAPCOM0_IRQHandler                     0x00200384   Section        0  startup_hvc5221d_b1.o(i.CAPCOM0_IRQHandler)
    i.CAPCOM1_IRQHandler                     0x00200388   Section        0  startup_hvc5221d_b1.o(i.CAPCOM1_IRQHandler)
    i.CAPCOM2_IRQHandler                     0x0020038c   Section        0  startup_hvc5221d_b1.o(i.CAPCOM2_IRQHandler)
    i.CPOFF_IRQHandler                       0x00200390   Section        0  startup_hvc5221d_b1.o(i.CPOFF_IRQHandler)
    i.Current_Process                        0x00200394   Section        0  adc.o(i.Current_Process)
    i.DebugMon_Handler                       0x002005b4   Section        0  startup_hvc5221d_b1.o(i.DebugMon_Handler)
    i.EEPROM_DATA_READ                       0x002005b8   Section        0  eeprom.o(i.EEPROM_DATA_READ)
    i.EPWM0_IRQHandler                       0x002005cc   Section        0  epwm.o(i.EPWM0_IRQHandler)
    i.EPWM1_IRQHandler                       0x002005f0   Section        0  epwm.o(i.EPWM1_IRQHandler)
    i.EPWM2_IRQHandler                       0x00200618   Section        0  epwm.o(i.EPWM2_IRQHandler)
    i.EPWMOC_IRQHandler                      0x00200640   Section        0  epwm.o(i.EPWMOC_IRQHandler)
    i.EPWM_Init                              0x00200668   Section        0  epwm.o(i.EPWM_Init)
    i.ERROR_CHACK                            0x00200984   Section        0  adc.o(i.ERROR_CHACK)
    i.Eight_Beat_Close_EXV                   0x00200a74   Section        0  epwm.o(i.Eight_Beat_Close_EXV)
    i.Eight_Beat_Open_EXV                    0x00200ccc   Section        0  epwm.o(i.Eight_Beat_Open_EXV)
    i.FLASH_IRQHandler                       0x00200f20   Section        0  startup_hvc5221d_b1.o(i.FLASH_IRQHandler)
    i.HardFault_Handler                      0x00200f24   Section        0  startup_hvc5221d_b1.o(i.HardFault_Handler)
    i.LGPIO_IRQHandler                       0x00200f28   Section        0  startup_hvc5221d_b1.o(i.LGPIO_IRQHandler)
    i.LINUART_IRQHandler                     0x00200f2c   Section        0  lin.o(i.LINUART_IRQHandler)
    i.LIN_FUNCTION                           0x00200f78   Section        0  lin.o(i.LIN_FUNCTION)
    i.LIN_IRQHandler                         0x00200f94   Section        0  lin.o(i.LIN_IRQHandler)
    i.LIN_Init                               0x00200fb8   Section        0  lin.o(i.LIN_Init)
    i.LOCKED_MOTOR_DETECT_RUNING             0x0020115c   Section        0  adc.o(i.LOCKED_MOTOR_DETECT_RUNING)
    i.MemManage_Handler                      0x00201228   Section        0  startup_hvc5221d_b1.o(i.MemManage_Handler)
    i.Motor_Position_Judge                   0x0020122c   Section        0  adc.o(i.Motor_Position_Judge)
    i.Motor_Run                              0x00201440   Section        0  epwm.o(i.Motor_Run)
    i.Motor_Step_Count                       0x002015c0   Section        0  adc.o(i.Motor_Step_Count)
    i.NMI_Handler                            0x00201668   Section        0  startup_hvc5221d_b1.o(i.NMI_Handler)
    i.PendSV_Handler                         0x0020166c   Section        0  startup_hvc5221d_b1.o(i.PendSV_Handler)
    i.Raw_Data_Get                           0x00201670   Section        0  adc.o(i.Raw_Data_Get)
    i.Receive_RXD_Register                   0x002016bc   Section        0  lin.o(i.Receive_RXD_Register)
    i.Reset_Handler                          0x002016c8   Section        0  startup_hvc5221d_b1.o(i.Reset_Handler)
    i.SPI_IRQHandler                         0x002016d0   Section        0  startup_hvc5221d_b1.o(i.SPI_IRQHandler)
    i.SVC_Handler                            0x002016d4   Section        0  startup_hvc5221d_b1.o(i.SVC_Handler)
    i.SYSCTRL_Init                           0x002016d8   Section        0  sysctrl.o(i.SYSCTRL_Init)
    i.Set_Mos_State                          0x00201704   Section        0  epwm.o(i.Set_Mos_State)
    i.SysTick_Handler                        0x00201786   Section        0  startup_hvc5221d_b1.o(i.SysTick_Handler)
    i.TIM0_IRQHandler                        0x0020178c   Section        0  tim.o(i.TIM0_IRQHandler)
    i.TIM1_IRQHandler                        0x002017b0   Section        0  tim.o(i.TIM1_IRQHandler)
    i.TIM_Init                               0x002017dc   Section        0  tim.o(i.TIM_Init)
    i.Task_Marks_Handler_Callback            0x00201970   Section        0  task.o(i.Task_Marks_Handler_Callback)
    i.Task_Pro_Handler_Callback              0x002019dc   Section        0  task.o(i.Task_Pro_Handler_Callback)
    i.UsageFault_Handler                     0x00201a1c   Section        0  startup_hvc5221d_b1.o(i.UsageFault_Handler)
    i.Value_Recover                          0x00201a20   Section        0  adc.o(i.Value_Recover)
    i.Variable_Init                          0x00201a78   Section        0  variable.o(i.Variable_Init)
    i.Voltage_Process                        0x00201aa8   Section        0  adc.o(i.Voltage_Process)
    i.WWDG_Stop                              0x00201b4c   Section        0  hvc5221d_b1_api.o(i.WWDG_Stop)
    i.Write_TXD_Register                     0x00201b5c   Section        0  lin.o(i.Write_TXD_Register)
    i.__NVIC_EnableIRQ                       0x00201b70   Section        0  epwm.o(i.__NVIC_EnableIRQ)
    __NVIC_EnableIRQ                         0x00201b71   Thumb Code    34  epwm.o(i.__NVIC_EnableIRQ)
    i.__NVIC_SetPriority                     0x00201b94   Section        0  epwm.o(i.__NVIC_SetPriority)
    __NVIC_SetPriority                       0x00201b95   Thumb Code    32  epwm.o(i.__NVIC_SetPriority)
    i.__NVIC_SetPriority                     0x00201bbc   Section        0  lin.o(i.__NVIC_SetPriority)
    __NVIC_SetPriority                       0x00201bbd   Thumb Code    32  lin.o(i.__NVIC_SetPriority)
    i.__rt_entry                             0x00201be4   Section        0  startup_hvc5221d_b1.o(i.__rt_entry)
    i.main                                   0x00201bec   Section        0  main.o(i.main)
    x$fpl$dadd                               0x00201c18   Section      336  daddsub_clz.o(x$fpl$dadd)
    _dadd1                                   0x00201c29   Thumb Code     0  daddsub_clz.o(x$fpl$dadd)
    x$fpl$dcmpinf                            0x00201d68   Section       24  dcmpi.o(x$fpl$dcmpinf)
    x$fpl$ddiv                               0x00201d80   Section      688  ddiv.o(x$fpl$ddiv)
    ddiv_entry                               0x00201d87   Thumb Code     0  ddiv.o(x$fpl$ddiv)
    x$fpl$deqf                               0x00202030   Section      120  deqf.o(x$fpl$deqf)
    x$fpl$dflt                               0x002020a8   Section       46  dflt_clz.o(x$fpl$dflt)
    x$fpl$dleqf                              0x002020d8   Section      120  dleqf.o(x$fpl$dleqf)
    x$fpl$dmul                               0x00202150   Section      340  dmul.o(x$fpl$dmul)
    x$fpl$dnaninf                            0x002022a4   Section      156  dnaninf.o(x$fpl$dnaninf)
    x$fpl$dretinf                            0x00202340   Section       12  dretinf.o(x$fpl$dretinf)
    x$fpl$drleqf                             0x0020234c   Section      108  drleqf.o(x$fpl$drleqf)
    x$fpl$dsub                               0x002023b8   Section      468  daddsub_clz.o(x$fpl$dsub)
    _dsub1                                   0x002023c9   Thumb Code     0  daddsub_clz.o(x$fpl$dsub)
    x$fpl$usenofp                            0x0020258c   Section        0  usenofp.o(x$fpl$usenofp)
    .data                                    0x20000000   Section       44  adc.o(.data)
    .data                                    0x2000002c   Section        8  tim.o(.data)
    .data                                    0x20000034   Section       16  epwm.o(.data)
    .data                                    0x20000044   Section       20  lin.o(.data)
    .data                                    0x20000058   Section      204  variable.o(.data)
    .data                                    0x20000124   Section       25  task.o(.data)
    .bss                                     0x20000140   Section      112  adc.o(.bss)
    .bss                                     0x200001b0   Section      392  variable.o(.bss)
    STACK                                    0x20000338   Section      256  startup_hvc5221d_b1.o(STACK)

    Global Symbols

    Symbol Name                              Value     Ov Type        Size  Object(Section)

    BuildAttributes$$THM_ISAv4$P$D$K$B$S$PE$A:L22UL41UL21$X:L11$S22US41US21$IEEE1$IW$USESV6$~STKCKD$USESV7$~SHL$OSPACE$ROPI$EBA8$STANDARDLIB$REQ8$PRES8$EABIv2 0x00000000   Number         0  anon$$obj.o ABSOLUTE
    __ARM_use_no_argv                        0x00000000   Number         0  main.o ABSOLUTE
    __Vectors                                0x00200000   Data         140  startup_hvc5221d_b1.o(RESET)
    __main                                   0x0020008d   Thumb Code     8  __main.o(!!!main)
    __scatterload                            0x00200095   Thumb Code     0  __scatter.o(!!!scatter)
    __scatterload_rt2                        0x00200095   Thumb Code    44  __scatter.o(!!!scatter)
    __scatterload_rt2_thumb_only             0x00200095   Thumb Code     0  __scatter.o(!!!scatter)
    __scatterload_null                       0x002000a3   Thumb Code     0  __scatter.o(!!!scatter)
    __scatterload_copy                       0x002000c9   Thumb Code    26  __scatter_copy.o(!!handler_copy)
    __scatterload_zeroinit                   0x002000e5   Thumb Code    28  __scatter_zi.o(!!handler_zi)
    SafeEnaADC                               0x00200101   Thumb Code    48  safeenaadc.o(.text)
    __aeabi_memcpy4                          0x00200135   Thumb Code     0  rt_memcpy_w.o(.text)
    __aeabi_memcpy8                          0x00200135   Thumb Code     0  rt_memcpy_w.o(.text)
    __rt_memcpy_w                            0x00200135   Thumb Code   100  rt_memcpy_w.o(.text)
    _memcpy_lastbytes_aligned                0x0020017d   Thumb Code     0  rt_memcpy_w.o(.text)
    ADC_IRQHandler                           0x00200199   Thumb Code    50  adc.o(i.ADC_IRQHandler)
    ADC_Init                                 0x002001d5   Thumb Code   382  adc.o(i.ADC_Init)
    BEMFC_IRQHandler                         0x00200361   Thumb Code     4  startup_hvc5221d_b1.o(i.BEMFC_IRQHandler)
    BEMFC_Init                               0x00200365   Thumb Code    16  bemfc.o(i.BEMFC_Init)
    BVDDOV_IRQHandler                        0x00200379   Thumb Code     4  startup_hvc5221d_b1.o(i.BVDDOV_IRQHandler)
    BVDDUV_IRQHandler                        0x0020037d   Thumb Code     4  startup_hvc5221d_b1.o(i.BVDDUV_IRQHandler)
    BusFault_Handler                         0x00200381   Thumb Code     4  startup_hvc5221d_b1.o(i.BusFault_Handler)
    CAPCOM0_IRQHandler                       0x00200385   Thumb Code     4  startup_hvc5221d_b1.o(i.CAPCOM0_IRQHandler)
    CAPCOM1_IRQHandler                       0x00200389   Thumb Code     4  startup_hvc5221d_b1.o(i.CAPCOM1_IRQHandler)
    CAPCOM2_IRQHandler                       0x0020038d   Thumb Code     4  startup_hvc5221d_b1.o(i.CAPCOM2_IRQHandler)
    CPOFF_IRQHandler                         0x00200391   Thumb Code     4  startup_hvc5221d_b1.o(i.CPOFF_IRQHandler)
    Current_Process                          0x00200395   Thumb Code   476  adc.o(i.Current_Process)
    DebugMon_Handler                         0x002005b5   Thumb Code     4  startup_hvc5221d_b1.o(i.DebugMon_Handler)
    EEPROM_DATA_READ                         0x002005b9   Thumb Code    16  eeprom.o(i.EEPROM_DATA_READ)
    EPWM0_IRQHandler                         0x002005cd   Thumb Code    32  epwm.o(i.EPWM0_IRQHandler)
    EPWM1_IRQHandler                         0x002005f1   Thumb Code    34  epwm.o(i.EPWM1_IRQHandler)
    EPWM2_IRQHandler                         0x00200619   Thumb Code    34  epwm.o(i.EPWM2_IRQHandler)
    EPWMOC_IRQHandler                        0x00200641   Thumb Code    34  epwm.o(i.EPWMOC_IRQHandler)
    EPWM_Init                                0x00200669   Thumb Code   796  epwm.o(i.EPWM_Init)
    ERROR_CHACK                              0x00200985   Thumb Code   212  adc.o(i.ERROR_CHACK)
    Eight_Beat_Close_EXV                     0x00200a75   Thumb Code   546  epwm.o(i.Eight_Beat_Close_EXV)
    Eight_Beat_Open_EXV                      0x00200ccd   Thumb Code   542  epwm.o(i.Eight_Beat_Open_EXV)
    FLASH_IRQHandler                         0x00200f21   Thumb Code     4  startup_hvc5221d_b1.o(i.FLASH_IRQHandler)
    HardFault_Handler                        0x00200f25   Thumb Code     4  startup_hvc5221d_b1.o(i.HardFault_Handler)
    LGPIO_IRQHandler                         0x00200f29   Thumb Code     4  startup_hvc5221d_b1.o(i.LGPIO_IRQHandler)
    LINUART_IRQHandler                       0x00200f2d   Thumb Code    60  lin.o(i.LINUART_IRQHandler)
    LIN_FUNCTION                             0x00200f79   Thumb Code    20  lin.o(i.LIN_FUNCTION)
    LIN_IRQHandler                           0x00200f95   Thumb Code    28  lin.o(i.LIN_IRQHandler)
    LIN_Init                                 0x00200fb9   Thumb Code   406  lin.o(i.LIN_Init)
    LOCKED_MOTOR_DETECT_RUNING               0x0020115d   Thumb Code   188  adc.o(i.LOCKED_MOTOR_DETECT_RUNING)
    MemManage_Handler                        0x00201229   Thumb Code     4  startup_hvc5221d_b1.o(i.MemManage_Handler)
    Motor_Position_Judge                     0x0020122d   Thumb Code   516  adc.o(i.Motor_Position_Judge)
    Motor_Run                                0x00201441   Thumb Code   344  epwm.o(i.Motor_Run)
    Motor_Step_Count                         0x002015c1   Thumb Code   140  adc.o(i.Motor_Step_Count)
    NMI_Handler                              0x00201669   Thumb Code     4  startup_hvc5221d_b1.o(i.NMI_Handler)
    PendSV_Handler                           0x0020166d   Thumb Code     4  startup_hvc5221d_b1.o(i.PendSV_Handler)
    Raw_Data_Get                             0x00201671   Thumb Code    68  adc.o(i.Raw_Data_Get)
    Receive_RXD_Register                     0x002016bd   Thumb Code     8  lin.o(i.Receive_RXD_Register)
    Reset_Handler                            0x002016c9   Thumb Code     8  startup_hvc5221d_b1.o(i.Reset_Handler)
    SPI_IRQHandler                           0x002016d1   Thumb Code     4  startup_hvc5221d_b1.o(i.SPI_IRQHandler)
    SVC_Handler                              0x002016d5   Thumb Code     4  startup_hvc5221d_b1.o(i.SVC_Handler)
    SYSCTRL_Init                             0x002016d9   Thumb Code    44  sysctrl.o(i.SYSCTRL_Init)
    Set_Mos_State                            0x00201705   Thumb Code   130  epwm.o(i.Set_Mos_State)
    SysTick_Handler                          0x00201787   Thumb Code     4  startup_hvc5221d_b1.o(i.SysTick_Handler)
    TIM0_IRQHandler                          0x0020178d   Thumb Code    28  tim.o(i.TIM0_IRQHandler)
    TIM1_IRQHandler                          0x002017b1   Thumb Code    30  tim.o(i.TIM1_IRQHandler)
    TIM_Init                                 0x002017dd   Thumb Code   386  tim.o(i.TIM_Init)
    Task_Marks_Handler_Callback              0x00201971   Thumb Code   100  task.o(i.Task_Marks_Handler_Callback)
    Task_Pro_Handler_Callback                0x002019dd   Thumb Code    56  task.o(i.Task_Pro_Handler_Callback)
    UsageFault_Handler                       0x00201a1d   Thumb Code     4  startup_hvc5221d_b1.o(i.UsageFault_Handler)
    Value_Recover                            0x00201a21   Thumb Code    60  adc.o(i.Value_Recover)
    Variable_Init                            0x00201a79   Thumb Code    42  variable.o(i.Variable_Init)
    Voltage_Process                          0x00201aa9   Thumb Code   150  adc.o(i.Voltage_Process)
    WWDG_Stop                                0x00201b4d   Thumb Code     8  hvc5221d_b1_api.o(i.WWDG_Stop)
    Write_TXD_Register                       0x00201b5d   Thumb Code    14  lin.o(i.Write_TXD_Register)
    __rt_entry                               0x00201be5   Thumb Code     8  startup_hvc5221d_b1.o(i.__rt_entry)
    main                                     0x00201bed   Thumb Code    44  main.o(i.main)
    __aeabi_dadd                             0x00201c19   Thumb Code     0  daddsub_clz.o(x$fpl$dadd)
    _dadd                                    0x00201c19   Thumb Code   332  daddsub_clz.o(x$fpl$dadd)
    __fpl_dcmp_Inf                           0x00201d69   Thumb Code    24  dcmpi.o(x$fpl$dcmpinf)
    __aeabi_ddiv                             0x00201d81   Thumb Code     0  ddiv.o(x$fpl$ddiv)
    _ddiv                                    0x00201d81   Thumb Code   552  ddiv.o(x$fpl$ddiv)
    __aeabi_cdcmpeq                          0x00202031   Thumb Code     0  deqf.o(x$fpl$deqf)
    _dcmpeq                                  0x00202031   Thumb Code   120  deqf.o(x$fpl$deqf)
    __aeabi_i2d                              0x002020a9   Thumb Code     0  dflt_clz.o(x$fpl$dflt)
    _dflt                                    0x002020a9   Thumb Code    46  dflt_clz.o(x$fpl$dflt)
    __aeabi_cdcmple                          0x002020d9   Thumb Code     0  dleqf.o(x$fpl$dleqf)
    _dcmple                                  0x002020d9   Thumb Code   120  dleqf.o(x$fpl$dleqf)
    __fpl_dcmple_InfNaN                      0x0020213b   Thumb Code     0  dleqf.o(x$fpl$dleqf)
    __aeabi_dmul                             0x00202151   Thumb Code     0  dmul.o(x$fpl$dmul)
    _dmul                                    0x00202151   Thumb Code   332  dmul.o(x$fpl$dmul)
    __fpl_dnaninf                            0x002022a5   Thumb Code   156  dnaninf.o(x$fpl$dnaninf)
    __fpl_dretinf                            0x00202341   Thumb Code    12  dretinf.o(x$fpl$dretinf)
    __aeabi_cdrcmple                         0x0020234d   Thumb Code     0  drleqf.o(x$fpl$drleqf)
    _drcmple                                 0x0020234d   Thumb Code   108  drleqf.o(x$fpl$drleqf)
    __aeabi_dsub                             0x002023b9   Thumb Code     0  daddsub_clz.o(x$fpl$dsub)
    _dsub                                    0x002023b9   Thumb Code   464  daddsub_clz.o(x$fpl$dsub)
    Region$$Table$$Base                      0x0020258c   Number         0  anon$$obj.o(Region$$Table)
    __I$use$fp                               0x0020258c   Number         0  usenofp.o(x$fpl$usenofp)
    Region$$Table$$Limit                     0x002025ac   Number         0  anon$$obj.o(Region$$Table)
    ADC_Handler_Counter                      0x20000000   Data           4  adc.o(.data)
    Motor_State_Open_Real                    0x20000004   Data           4  adc.o(.data)
    Motor_State_Close_Real                   0x20000008   Data           4  adc.o(.data)
    Last_Motor_State_Open_Real               0x2000000c   Data           4  adc.o(.data)
    Last_Motor_State_Close_Real              0x20000010   Data           4  adc.o(.data)
    Open_Really_All_Step                     0x20000014   Data           4  adc.o(.data)
    Close_Really_All_Step                    0x20000018   Data           4  adc.o(.data)
    Max_Data                                 0x2000001c   Data           4  adc.o(.data)
    Last_DIR                                 0x20000020   Data           4  adc.o(.data)
    Last_Motor_Current                       0x20000024   Data           4  adc.o(.data)
    ADD_Motor_Current                        0x20000028   Data           4  adc.o(.data)
    TIM0_Handler_Counter                     0x2000002c   Data           4  tim.o(.data)
    TIM1_Handler_Counter                     0x20000030   Data           4  tim.o(.data)
    EPWM0_Handler_Counter                    0x20000034   Data           4  epwm.o(.data)
    EPWM1_Handler_Counter                    0x20000038   Data           4  epwm.o(.data)
    EPWM2_Handler_Counter                    0x2000003c   Data           4  epwm.o(.data)
    EPWMOC_Handler_Counter                   0x20000040   Data           4  epwm.o(.data)
    recv                                     0x20000044   Data           1  lin.o(.data)
    send                                     0x20000045   Data           1  lin.o(.data)
    LIN_Handler_Counter                      0x20000048   Data           4  lin.o(.data)
    LINUART_RX_Handler_Counter               0x2000004c   Data           4  lin.o(.data)
    LINUART_TX_Handler_Counter               0x20000050   Data           4  lin.o(.data)
    LINUART_TXEND_Handler_Counter            0x20000054   Data           4  lin.o(.data)
    OVER_CURRENT_ERROR                       0x20000058   Data           1  variable.o(.data)
    OPEN_CIRCLE_ERROR                        0x20000059   Data           1  variable.o(.data)
    LOCKED_ROTOR_ERROR                       0x2000005a   Data           1  variable.o(.data)
    ERROR_HAPPENED_TIME                      0x2000005c   Data           4  variable.o(.data)
    LOCKED_ROTOR_ERROR_COUNT                 0x20000060   Data           4  variable.o(.data)
    MOS_STATE_CHANGE                         0x20000064   Data           1  variable.o(.data)
    ADC_CURRENT_MID_VALUE                    0x20000068   Data           4  variable.o(.data)
    ADC_CURRENT_MAX_VALUE                    0x2000006c   Data           4  variable.o(.data)
    RS0_CURRENT_POSITION                     0x20000070   Data           4  variable.o(.data)
    RS0_CURRENT_POSITION_LAST                0x20000074   Data           4  variable.o(.data)
    RS1_CURRENT_POSITION                     0x20000078   Data           4  variable.o(.data)
    RS1_CURRENT_POSITION_LAST                0x2000007c   Data           4  variable.o(.data)
    RS0_AVERAGE_COUNT                        0x20000080   Data           4  variable.o(.data)
    RS1_AVERAGE_COUNT                        0x20000084   Data           4  variable.o(.data)
    RS0_All_CURRENT                          0x20000088   Data           4  variable.o(.data)
    RS1_All_CURRENT                          0x2000008c   Data           4  variable.o(.data)
    RS0_CURRENT_CALCULATE_FLAG               0x20000090   Data           4  variable.o(.data)
    RS1_CURRENT_CALCULATE_FLAG               0x20000094   Data           4  variable.o(.data)
    ADC_RATIO                                0x20000098   Data           8  variable.o(.data)
    Motor_Locked_Current                     0x200000a0   Data           8  variable.o(.data)
    Current_Judge_Gap                        0x200000a8   Data           8  variable.o(.data)
    Motor_Max_Speed_Current                  0x200000b0   Data           8  variable.o(.data)
    Real_Current_Count                       0x200000b8   Data           8  variable.o(.data)
    Simple_Number                            0x200000c0   Data           4  variable.o(.data)
    Real_Count                               0x200000c4   Data           4  variable.o(.data)
    Current_Sudden_Change                    0x200000c8   Data           8  variable.o(.data)
    MAX_START_CURRENT                        0x200000d0   Data           8  variable.o(.data)
    MIN_START_CURRENT                        0x200000d8   Data           8  variable.o(.data)
    Eight_Beat_Time                          0x200000e0   Data           4  variable.o(.data)
    Save_Beat                                0x200000e4   Data           4  variable.o(.data)
    Change_Eight_Beat_Counter                0x200000e8   Data           4  variable.o(.data)
    Last_MOTOR_DIR                           0x200000ec   Data           4  variable.o(.data)
    Dir_Flag                                 0x200000f0   Data           4  variable.o(.data)
    MOTOR_DIR                                0x200000f4   Data           4  variable.o(.data)
    ERROR_RECOVER                            0x200000f8   Data           4  variable.o(.data)
    Rotate_Finish                            0x200000fc   Data           4  variable.o(.data)
    Last_Save_Beat                           0x20000100   Data           4  variable.o(.data)
    Time                                     0x20000104   Data           4  variable.o(.data)
    CLOSE_EXV_FLAG                           0x20000108   Data           4  variable.o(.data)
    OPEN_EXV_FLAG                            0x2000010c   Data           4  variable.o(.data)
    EXV_STEP                                 0x20000110   Data           4  variable.o(.data)
    INIT_ALL_STEP                            0x20000114   Data           4  variable.o(.data)
    OUT_CONTROL_FLAG                         0x20000118   Data           4  variable.o(.data)
    EEPROM_WEITE_FLAG                        0x2000011c   Data           4  variable.o(.data)
    EEPROM_ERASE_FLAG                        0x20000120   Data           4  variable.o(.data)
    Task_Comps                               0x20000124   Data          24  task.o(.data)
    Tasks_Max                                0x2000013c   Data           1  task.o(.data)
    ADC_Raw_Value                            0x20000140   Data          44  adc.o(.bss)
    ADC_Voltage                              0x20000170   Data          64  adc.o(.bss)
    Current_queue                            0x200001b0   Data         104  variable.o(.bss)
    Mos_State                                0x20000218   Data          32  variable.o(.bss)
    EEPROM_DATA                              0x20000238   Data         256  variable.o(.bss)
    __stack                                  0x20000338   Data         256  startup_hvc5221d_b1.o(STACK)



==============================================================================

Memory Map of the image

  Image Entry point : 0x0020008d

  Load Region LR_IROM1 (Base: 0x00200000, Size: 0x000026ec, Max: 0x00008000, ABSOLUTE)

    Execution Region ER_IROM1 (Exec base: 0x00200000, Load base: 0x00200000, Size: 0x000025ac, Max: 0x00008000, ABSOLUTE)

    Exec Addr    Load Addr    Size         Type   Attr      Idx    E Section Name        Object

    0x00200000   0x00200000   0x0000008c   Data   RO          870    RESET               startup_hvc5221d_b1.o
    0x0020008c   0x0020008c   0x00000008   Code   RO         1076  * !!!main             c_w.l(__main.o)
    0x00200094   0x00200094   0x00000034   Code   RO         1078    !!!scatter          c_w.l(__scatter.o)
    0x002000c8   0x002000c8   0x0000001a   Code   RO         1113    !!handler_copy      c_w.l(__scatter_copy.o)
    0x002000e2   0x002000e2   0x00000002   PAD
    0x002000e4   0x002000e4   0x0000001c   Code   RO         1115    !!handler_zi        c_w.l(__scatter_zi.o)
    0x00200100   0x00200100   0x00000034   Code   RO          204    .text               safeenaadc.o
    0x00200134   0x00200134   0x00000064   Code   RO         1074    .text               c_w.l(rt_memcpy_w.o)
    0x00200198   0x00200198   0x0000003c   Code   RO          108    i.ADC_IRQHandler    adc.o
    0x002001d4   0x002001d4   0x0000018c   Code   RO          109    i.ADC_Init          adc.o
    0x00200360   0x00200360   0x00000004   Code   RO          841    i.BEMFC_IRQHandler  startup_hvc5221d_b1.o
    0x00200364   0x00200364   0x00000014   Code   RO          616    i.BEMFC_Init        bemfc.o
    0x00200378   0x00200378   0x00000004   Code   RO          842    i.BVDDOV_IRQHandler  startup_hvc5221d_b1.o
    0x0020037c   0x0020037c   0x00000004   Code   RO          843    i.BVDDUV_IRQHandler  startup_hvc5221d_b1.o
    0x00200380   0x00200380   0x00000004   Code   RO          844    i.BusFault_Handler  startup_hvc5221d_b1.o
    0x00200384   0x00200384   0x00000004   Code   RO          845    i.CAPCOM0_IRQHandler  startup_hvc5221d_b1.o
    0x00200388   0x00200388   0x00000004   Code   RO          846    i.CAPCOM1_IRQHandler  startup_hvc5221d_b1.o
    0x0020038c   0x0020038c   0x00000004   Code   RO          847    i.CAPCOM2_IRQHandler  startup_hvc5221d_b1.o
    0x00200390   0x00200390   0x00000004   Code   RO          848    i.CPOFF_IRQHandler  startup_hvc5221d_b1.o
    0x00200394   0x00200394   0x00000220   Code   RO          110    i.Current_Process   adc.o
    0x002005b4   0x002005b4   0x00000004   Code   RO          849    i.DebugMon_Handler  startup_hvc5221d_b1.o
    0x002005b8   0x002005b8   0x00000014   Code   RO          667    i.EEPROM_DATA_READ  eeprom.o
    0x002005cc   0x002005cc   0x00000024   Code   RO          277    i.EPWM0_IRQHandler  epwm.o
    0x002005f0   0x002005f0   0x00000028   Code   RO          278    i.EPWM1_IRQHandler  epwm.o
    0x00200618   0x00200618   0x00000028   Code   RO          279    i.EPWM2_IRQHandler  epwm.o
    0x00200640   0x00200640   0x00000028   Code   RO          280    i.EPWMOC_IRQHandler  epwm.o
    0x00200668   0x00200668   0x0000031c   Code   RO          281    i.EPWM_Init         epwm.o
    0x00200984   0x00200984   0x000000f0   Code   RO          111    i.ERROR_CHACK       adc.o
    0x00200a74   0x00200a74   0x00000258   Code   RO          282    i.Eight_Beat_Close_EXV  epwm.o
    0x00200ccc   0x00200ccc   0x00000254   Code   RO          283    i.Eight_Beat_Open_EXV  epwm.o
    0x00200f20   0x00200f20   0x00000004   Code   RO          854    i.FLASH_IRQHandler  startup_hvc5221d_b1.o
    0x00200f24   0x00200f24   0x00000004   Code   RO          855    i.HardFault_Handler  startup_hvc5221d_b1.o
    0x00200f28   0x00200f28   0x00000004   Code   RO          856    i.LGPIO_IRQHandler  startup_hvc5221d_b1.o
    0x00200f2c   0x00200f2c   0x0000004c   Code   RO          370    i.LINUART_IRQHandler  lin.o
    0x00200f78   0x00200f78   0x0000001c   Code   RO          371    i.LIN_FUNCTION      lin.o
    0x00200f94   0x00200f94   0x00000024   Code   RO          372    i.LIN_IRQHandler    lin.o
    0x00200fb8   0x00200fb8   0x000001a4   Code   RO          373    i.LIN_Init          lin.o
    0x0020115c   0x0020115c   0x000000cc   Code   RO          112    i.LOCKED_MOTOR_DETECT_RUNING  adc.o
    0x00201228   0x00201228   0x00000004   Code   RO          859    i.MemManage_Handler  startup_hvc5221d_b1.o
    0x0020122c   0x0020122c   0x00000214   Code   RO          114    i.Motor_Position_Judge  adc.o
    0x00201440   0x00201440   0x00000180   Code   RO          284    i.Motor_Run         epwm.o
    0x002015c0   0x002015c0   0x000000a8   Code   RO          115    i.Motor_Step_Count  adc.o
    0x00201668   0x00201668   0x00000004   Code   RO          860    i.NMI_Handler       startup_hvc5221d_b1.o
    0x0020166c   0x0020166c   0x00000004   Code   RO          861    i.PendSV_Handler    startup_hvc5221d_b1.o
    0x00201670   0x00201670   0x0000004c   Code   RO          116    i.Raw_Data_Get      adc.o
    0x002016bc   0x002016bc   0x0000000c   Code   RO          374    i.Receive_RXD_Register  lin.o
    0x002016c8   0x002016c8   0x00000008   Code   RO          862    i.Reset_Handler     startup_hvc5221d_b1.o
    0x002016d0   0x002016d0   0x00000004   Code   RO          863    i.SPI_IRQHandler    startup_hvc5221d_b1.o
    0x002016d4   0x002016d4   0x00000004   Code   RO          864    i.SVC_Handler       startup_hvc5221d_b1.o
    0x002016d8   0x002016d8   0x0000002c   Code   RO          211    i.SYSCTRL_Init      sysctrl.o
    0x00201704   0x00201704   0x00000082   Code   RO          285    i.Set_Mos_State     epwm.o
    0x00201786   0x00201786   0x00000004   Code   RO          865    i.SysTick_Handler   startup_hvc5221d_b1.o
    0x0020178a   0x0020178a   0x00000002   PAD
    0x0020178c   0x0020178c   0x00000024   Code   RO          235    i.TIM0_IRQHandler   tim.o
    0x002017b0   0x002017b0   0x0000002c   Code   RO          236    i.TIM1_IRQHandler   tim.o
    0x002017dc   0x002017dc   0x00000194   Code   RO          237    i.TIM_Init          tim.o
    0x00201970   0x00201970   0x0000006c   Code   RO          716    i.Task_Marks_Handler_Callback  task.o
    0x002019dc   0x002019dc   0x00000040   Code   RO          717    i.Task_Pro_Handler_Callback  task.o
    0x00201a1c   0x00201a1c   0x00000004   Code   RO          868    i.UsageFault_Handler  startup_hvc5221d_b1.o
    0x00201a20   0x00201a20   0x00000058   Code   RO          117    i.Value_Recover     adc.o
    0x00201a78   0x00201a78   0x00000030   Code   RO          585    i.Variable_Init     variable.o
    0x00201aa8   0x00201aa8   0x000000a4   Code   RO          118    i.Voltage_Process   adc.o
    0x00201b4c   0x00201b4c   0x00000010   Code   RO          752    i.WWDG_Stop         hvc5221d_b1_api.o
    0x00201b5c   0x00201b5c   0x00000014   Code   RO          375    i.Write_TXD_Register  lin.o
    0x00201b70   0x00201b70   0x00000022   Code   RO          286    i.__NVIC_EnableIRQ  epwm.o
    0x00201b92   0x00201b92   0x00000002   PAD
    0x00201b94   0x00201b94   0x00000028   Code   RO          287    i.__NVIC_SetPriority  epwm.o
    0x00201bbc   0x00201bbc   0x00000028   Code   RO          376    i.__NVIC_SetPriority  lin.o
    0x00201be4   0x00201be4   0x00000008   Code   RO          869    i.__rt_entry        startup_hvc5221d_b1.o
    0x00201bec   0x00201bec   0x0000002c   Code   RO            4    i.main              main.o
    0x00201c18   0x00201c18   0x00000150   Code   RO         1080    x$fpl$dadd          fz_ws.l(daddsub_clz.o)
    0x00201d68   0x00201d68   0x00000018   Code   RO         1104    x$fpl$dcmpinf       fz_ws.l(dcmpi.o)
    0x00201d80   0x00201d80   0x000002b0   Code   RO         1087    x$fpl$ddiv          fz_ws.l(ddiv.o)
    0x00202030   0x00202030   0x00000078   Code   RO         1090    x$fpl$deqf          fz_ws.l(deqf.o)
    0x002020a8   0x002020a8   0x0000002e   Code   RO         1093    x$fpl$dflt          fz_ws.l(dflt_clz.o)
    0x002020d6   0x002020d6   0x00000002   PAD
    0x002020d8   0x002020d8   0x00000078   Code   RO         1098    x$fpl$dleqf         fz_ws.l(dleqf.o)
    0x00202150   0x00202150   0x00000154   Code   RO         1100    x$fpl$dmul          fz_ws.l(dmul.o)
    0x002022a4   0x002022a4   0x0000009c   Code   RO         1106    x$fpl$dnaninf       fz_ws.l(dnaninf.o)
    0x00202340   0x00202340   0x0000000c   Code   RO         1108    x$fpl$dretinf       fz_ws.l(dretinf.o)
    0x0020234c   0x0020234c   0x0000006c   Code   RO         1102    x$fpl$drleqf        fz_ws.l(drleqf.o)
    0x002023b8   0x002023b8   0x000001d4   Code   RO         1082    x$fpl$dsub          fz_ws.l(daddsub_clz.o)
    0x0020258c   0x0020258c   0x00000000   Code   RO         1110    x$fpl$usenofp       fz_ws.l(usenofp.o)
    0x0020258c   0x0020258c   0x00000020   Data   RO         1111    Region$$Table       anon$$obj.o


    Execution Region RW_IRAM1 (Exec base: 0x20000000, Load base: 0x002025ac, Size: 0x00000438, Max: 0x00000800, ABSOLUTE)

    Exec Addr    Load Addr    Size         Type   Attr      Idx    E Section Name        Object

    0x20000000   0x002025ac   0x0000002c   Data   RW          120    .data               adc.o
    0x2000002c   0x002025d8   0x00000008   Data   RW          238    .data               tim.o
    0x20000034   0x002025e0   0x00000010   Data   RW          288    .data               epwm.o
    0x20000044   0x002025f0   0x00000014   Data   RW          377    .data               lin.o
    0x20000058   0x00202604   0x000000cc   Data   RW          587    .data               variable.o
    0x20000124   0x002026d0   0x00000019   Data   RW          718    .data               task.o
    0x2000013d   0x002026e9   0x00000003   PAD
    0x20000140        -       0x00000070   Zero   RW          119    .bss                adc.o
    0x200001b0        -       0x00000188   Zero   RW          586    .bss                variable.o
    0x20000338        -       0x00000100   Zero   RW          871    STACK               startup_hvc5221d_b1.o


==============================================================================

Image component sizes


      Code (inc. data)   RO Data    RW Data    ZI Data      Debug   Object Name

      2472        230          0         44        112      33857   adc.o
        20          4          0          0          0        353   bemfc.o
        20          4          0          0          0        391   eeprom.o
      2736        194          0         16          0       6617   epwm.o
        16          8          0          0          0        444   hvc5221d_b1_api.o
       632         64          0         20          0      30499   lin.o
        44          0          0          0          0      26455   main.o
        52          4          0          0          0        308   safeenaadc.o
        92          0        140          0        256      10043   startup_hvc5221d_b1.o
        44          0          0          0          0        395   sysctrl.o
       172         16          0         25          0       1473   task.o
       484         40          0          8          0       1811   tim.o
        48          6          0        204        392       3782   variable.o

    ----------------------------------------------------------------------
      6836        570        172        320        760     116428   Object Totals
         0          0         32          0          0          0   (incl. Generated)
         4          0          0          3          0          0   (incl. Padding)

    ----------------------------------------------------------------------

      Code (inc. data)   RO Data    RW Data    ZI Data      Debug   Library Member Name

         8          0          0          0          0         68   __main.o
        52          8          0          0          0         68   __scatter.o
        26          0          0          0          0          0   __scatter_copy.o
        28          0          0          0          0          0   __scatter_zi.o
       100          0          0          0          0         80   rt_memcpy_w.o
       804         16          0          0          0        272   daddsub_clz.o
        24          0          0          0          0         68   dcmpi.o
       688        140          0          0          0        208   ddiv.o
       120          4          0          0          0         92   deqf.o
        46          0          0          0          0         68   dflt_clz.o
       120          4          0          0          0         92   dleqf.o
       340         12          0          0          0        104   dmul.o
       156          4          0          0          0         92   dnaninf.o
        12          0          0          0          0         68   dretinf.o
       108          0          0          0          0         80   drleqf.o
         0          0          0          0          0          0   usenofp.o

    ----------------------------------------------------------------------
      2636        188          0          0          0       1360   Library Totals
         4          0          0          0          0          0   (incl. Padding)

    ----------------------------------------------------------------------

      Code (inc. data)   RO Data    RW Data    ZI Data      Debug   Library Name

       214          8          0          0          0        216   c_w.l
      2418        180          0          0          0       1144   fz_ws.l

    ----------------------------------------------------------------------
      2636        188          0          0          0       1360   Library Totals

    ----------------------------------------------------------------------

==============================================================================


      Code (inc. data)   RO Data    RW Data    ZI Data      Debug   

      9472        758        172        320        760     114284   Grand Totals
      9472        758        172        320        760     114284   ELF Image Totals
      9472        758        172        320          0          0   ROM Totals

==============================================================================

    Total RO  Size (Code + RO Data)                 9644 (   9.42kB)
    Total RW  Size (RW Data + ZI Data)              1080 (   1.05kB)
    Total ROM Size (Code + RO Data + RW Data)       9964 (   9.73kB)

==============================================================================

